:020000040040BA
:10000000B05C00202D1B4000291B4000291B400034
:10001000291B4000291B4000291B40000000000054
:10002000000000000000000000000000291B40004C
:10003000291B400000000000291B400071384000CF
:10004000291B4000291B4000291B4000291B4000A0
:10005000291B4000291B4000291B40000000000014
:100060003D3C4000291B4000000000002D184000CE
:100070004118400055184000291B4000291B400032
:100080000000000000000000291B4000291B400068
:10009000291B4000291B4000291B4000291B400050
:1000A000291B4000291B4000291B4000291B400040
:1000B000291B4000291B4000291B4000291B400030
:1000C000291B4000291B4000291B400010B5054C8E
:1000D000237833B9044B13B10448AFF300800123F4
:1000E000237010BDD408002000000000FCB04000C8
:1000F000084B10B51BB108480849AFF30080084809
:10010000036803B910BD074B002BFBD0BDE81040BE
:10011000184700BF00000000FCB04000D8080020D5
:10012000FCB040000000000010B5074B1A6892F8C0
:100130002230064908781168527C003318BF012329
:10014000034CA04710BD00BFF4080020FA080020AF
:10015000D110400010B5084B1B68998941F6093051
:100160000904064B9847044620B1034B1868123027
:10017000034B9847204610BDF40800206911400049
:100180009D11400008B5034B1B7813B90020024BAA
:10019000984708BDFA0800204111400010B500281A
:1001A00057D1344B9A68530903F5001303F20773D0
:1001B0005B02D96B02F01F02012393400B420ED069
:1001C0002C4B9B7B012B05D12B4B1B7813B10022B1
:1001D0002A4B1A600422274B9A73022010BD254B2C
:1001E0009B7B042B15D10122224B9A73234B1B6856
:1001F0003BB9214B1A70214B214959601A600220EA
:1002000010BD00221C4B1A701E481F4B984702203D
:1002100010BD012B0BD1184B1B7803B3174B1B6878
:1002200013F4803F17D00022144B1A6017E0114BD3
:100230009B7B032B11D00022144B1A700D4C144BD6
:100240001C60144B9847A07B022814BF002001209B
:1002500010BD042010BD022010BD032010BD054BB1
:1002600002229A730C4A1A6001225A74002283F8FF
:100270002220DCE70C000020F208002010E000E063
:10028000C0E1E40025CA820001000020FA08002035
:10029000F408002029014000801A060008B5042255
:1002A000034B9A73FF22034B1A70034B984708BD08
:1002B0000C000020FA080020991040002DE9F041C0
:1002C00094B09B4B98470446012803D0994B98471C
:1002D000204610E3984B1B680122DA7300241C743B
:1002E0009C81964B98474FF480402146944B984709
:1002F000002800F0C98245F208504FF4D571904BA8
:100300009847002800F0C8828E4B9847B0F1FF3F15
:1003100000F0C482C0F30B00B0F5D57F40F0B4828A
:100320000126BCE240F63504854D874FDFF8148284
:1003300041F237100021A847002800F0B882002EB3
:1003400044F229500CBF4FF4FC113946A84700284D
:1003500000F0AD82C04700280ADA10F0804F00F0AC
:10036000B282754B1A68D37B43F00803D373AAE2B9
:10037000013CDDD19BE241F26904734F704E714D37
:1003800044F201503946B047002800F07D82A8476A
:1003900000280CDA00F0C040B0F1804F40F09B82A2
:1003A000654B1A68D37B43F00803D37393E2013C97
:1003B000E6D169E2604B1B6801229A8141F2031089
:1003C0004FF480315E4B9847002800F05D825F4B10
:1003D0009847002800F05882574B19688B7CC3F36C
:1003E0008303013B032B03D8DFE803F005080B0E62
:1003F00012230B740AE014230B7407E022230B74FE
:1004000004E030230B7401E040230B744B7D03F0B8
:1004100007004F4A52F820004FF47A7202FB00F2B4
:10042000C3F3C3034B4850F8233003FB02F30B60C4
:10043000887E0B7E4A7E920042EA832343EAA01321
:10044000C3F30B0340F6FF7293420FD0087FCA7EBE
:10045000520042EAE012013302F0070202329340F6
:10046000CA7D02F00F0293409B0A4B60898943F2D8
:1004700007100904324B9847002800F005822E4BE4
:100480001B681B7C3F2B40F2A48000210091324866
:100490004FF400720123314CA047002800F0F48192
:1004A00000242F4D03A8A847002800F0ED81013457
:1004B000A4B2322CF6D1039B03F00203DDB21E4B33
:1004C0001A68917E137E527E920042EA832343EAA9
:1004D000A113C3F30B0340F6FF7293420ED1204EDB
:1004E00004A8B047002800F0CF810134A4B2352C15
:1004F000F6D9114B1A68049B5B085360184E06E04E
:1005000004A8B047002800F0BF810134A4B27F2CBA
:10051000F6D9E8E1134B1878134B984704460428A2
:1005200028D01249124B082808BF194623E000BF03
:100530009D01400085014000F40800204511400065
:10054000691140009511400000801F405501400096
:1005500014A7400030A7400008110800CD1140004A
:100560009D124000FA080020C11040000000B701B1
:100570000002B701764943F20610764B98470028EF
:1005800000F08281744B984710F0800F40F07C811E
:10059000724B1B685C74724B9847724B984700B360
:1005A000FDB143F2061070496A4B9847002800F0ED
:1005B0006B81694B984710F0800F40F06581674B65
:1005C0001B68012283F82220684A1A60644B98470E
:1005D00007E0634B984704E038463146A84738B1F6
:1005E0004AE10A2441F210174FF40076594DF3E71F
:1005F000013C14F0FF04EFD146E145F60230002142
:10060000544B9847002800F03F8145F20310002129
:10061000504B9847002800F03781504C25684E4BCE
:100620009847000CA8812368DB7B13F0010F41D0B1
:100630004F4B9847002800F0278123685A7D02F02D
:1006400007004C4951F820004FF47A7101FB00F18A
:10065000C2F3C302484850F8222002FB01F21A609C
:100660009A7C92090CD0DA7E987E597E090441EA80
:1006700000210A43C2F31502013252025A6019E006
:10068000987E1A7E597E890041EA822242EAA012AF
:10069000187FD97E490041EAE011C2F30B02013212
:1006A00001F0070102318A40D97D01F00F018A4033
:1006B000920A5A60294B1B68998943F20710090472
:1006C000244B9847002800F0DF80244B1B68DA7B1E
:1006D00012F0010F5ED0998941F2371009041D4BC9
:1006E0009847002800F0D080012300932348002180
:1006F0000822234CA047002800F0C68004A801214E
:10070000204B9847002800F0BF801F4B98470028D7
:1007100000F0BA809DF8103003F00F03012B08D0D1
:1007200013B1022B0AD031E00C4B1B6810221A7453
:1007300030E00A4B1B681A221A742BE09DF8123025
:10074000DB09064B1B6814BF302220221A7421E0FB
:100750000001B7016911400095114000F408002024
:1007600029014000CD1040000001B90300751903B4
:100770005501400014A74000D4A6400033110800E2
:10078000CD11400011134000791340005B4B1B68F2
:1007900010221A745A4B18785A4B984703281AD9C2
:1007A000564B1B68DA7B12F0010F12D0998941F287
:1007B00037100904544B9847002865D041F20610C1
:1007C0000221514B984700285ED04C4B1B680422F5
:1007D0005A744E4B98474E4B984700283FD0474B92
:1007E0001B68DA7B12F0010F37D01B7C102B34D939
:1007F000402404A800212246464B98470123009339
:10080000454846492246464CA04700283CD004A80B
:100810000121444B9847002836D0434B9847002885
:1008200032D0424B984710F0800F2DD19DF82030E8
:1008300003F00F030F2B10D09DF82D309DF82C20C6
:1008400053EA022320D13A4B98472C4B1B680122D4
:1008500083F822201A6852001A602C4B9847274BC5
:100860001B68DB7B13F0010F06D041F210104FF430
:100870000071254B984738B1204B1B6800229A73B2
:100880002C4B9847012036E01C4B1B6803249C73BB
:10089000284B984720462EE0002600E00026174B04
:1008A0001B68DB7B13F0010F3FF4AFAE3AE5134B4F
:1008B0001B680222DA734FF480400021124B9847E4
:1008C0000028E1D057E50D4B1B68DB7B13F0010FCF
:1008D0007FF493AE99E645F6023000210A4B984723
:1008E0000028D1D066E5064B1878064B98470328B8
:1008F0003FF610AE51E614B0BDE8F081F4080020D8
:10090000FA080020C1104000691140002901400090
:10091000CD104000E14840000611080001FFFF80B3
:10092000CD11400011134000791340009511400093
:10093000451140008501400008B5054B984728B98E
:10094000044B9847044B1B68D87B08BD002008BDAA
:100950009D01400085014000F408002008B5054BCA
:10096000984728B9044B9847044B1B68586808BD42
:10097000002008BD9D01400085014000F4080020D2
:10098000002070472DE9F04383B089469046254BFF
:100990009847002831D1244C244E254D254F3368EB
:1009A000998941F20D100904A84738B3B84710F4EB
:1009B000807F27D1013CF2D120E04FEA4929012371
:1009C000009349464FF4007243461B4CA04718B9A8
:1009D0001A4B9847052022E0164B9847184B0340C6
:1009E0001BB1164B9847052019E0164BA3F8008061
:1009F000154BA3F80080002011E010E00F4B984742
:100A000005200CE01148124BB8F1010F88BF1846C1
:100A1000064B1B68DB7B13F0080FD0D1CDE703B08A
:100A2000BDE8F0839D014000410D0300F408002063
:100A30006911400095114000CD1140008501400032
:100A4000000058E4F8080020F00800201111080008
:100A50001211100010B50C46064B984720B9002221
:100A6000054B1A80052010BD034A13881C1B1480F7
:100A7000002010BD11134000F808002010B50446F6
:100A8000124B9847F0B11CB10022114B1A8002E0C2
:100A90000F4B1B88C3B90F4B1B88012B03D10E4B87
:100AA0009847002010BD43F20C1000210B4B9847D3
:100AB00020B943F20C100021084B9847064B984789
:100AC000002010BD052010BD002010BD791340008E
:100AD000F8080020F008002085014000691140005E
:100AE00030B583B00D461446164B984738BB1648B0
:100AF000164B012C88BF1846154B1B68DB7B13F087
:100B0000080F08BF6D020123009329464FF40072BD
:100B10002346104DA84718B90F4B984705200EE003
:100B20000E4B98470E4B03401BB10B4B98470520CB
:100B300005E00C4B1C800C4B1C800020FFE703B031
:100B400030BD00BF9D0140001891080019911000B0
:100B5000F4080020CD1140008501400095114000AF
:100B6000000058E4F8080020F008002010B50C46FA
:100B7000064B984720B90022054B1A80052010BD6E
:100B8000034A13881C1B1480002010BDED13400085
:100B9000F808002010B50446124B9847E8B11CB184
:100BA0000022114B1A8002E00F4B1B88BBB90F4B80
:100BB0001B88012B03D10E4B9847002010BD43F238
:100BC0000C1000210B4B984718B9094B984705208A
:100BD00010BD074B9847002010BD052010BD002018
:100BE00010BD00BF59144000F8080020F008002094
:100BF000850140006911400010B504460F4B98472D
:100C0000012816D018B102280ED0012010BD0C4BBF
:100C10001B5D83B920460B4B984700F0030000286A
:100C200014BF0020022010BD0022054B1A550220DF
:100C300010BD032010BD022010BD00BFBD0240004A
:100C4000FC0800203909400008B50020014B9847F6
:100C500008BD00BFF90B400038B504460D46044BF3
:100C600098474000013828602046024B984738BD1D
:100C70005D094000F90B400008B501460020014B1A
:100C8000984708BD590C400008B50020014B984713
:100C900008BD00BF8109400010B5144601220A4B6F
:100CA000984720B102280CBF0220012010BD204629
:100CB0000121064B984728B9054B9847003018BFCB
:100CC000012010BD012010BD85094000550A4000DB
:100CD0007D0A400008B503460A4600201946014B2C
:100CE000984708BD990C400010B5144601220A4BE4
:100CF000984720B102280CBF0220012010BD2046D9
:100D00000121064B984728B9054B9847003018BF7A
:100D1000012010BD012010BDE10A40006D0B400014
:100D2000950B400008B503460A4600201946014BC2
:100D3000984708BDE90C400010B50E480E4B984787
:100D400000203E210D4B98470D4CA0470028FCD0B9
:100D50000C4B98470C4A0D4B9A620D4CA04700284B
:100D6000FCD010200B4B98470B4B98470148024B87
:100D7000984710BD000E2707F11C4000D118400015
:100D80002519400035194000013F132000040E4092
:100D90004519400069184000DD1B400018B908B52E
:100DA000024B984708BD0120704700BF490C400026
:100DB00020B908B50846024B984708BD0120704786
:100DC000790C4000B0FA80F04009704718B908B5B6
:100DD000024B984708BD0120704700BF890C4000B6
:100DE00028B908B508461146024B984708BD0120AE
:100DF000704700BFD50C400028B908B50846114619
:100E0000024B984708BD0120704700BF250D4000E8
:100E1000A8B92DE9F0410C469046002A0ADD8F184A
:100E2000084E094D306821462B6898470134BC4272
:100E3000F8D101E04FF000084046BDE8F0814FF0E6
:100E4000FF307047E4090020DC0900200138022847
:100E500018D82DE9F0410E46144682B10D46DFF850
:100E600038800C4FD8F8000015F8011B3B689847F4
:100E700000280ADBA81B013CF4D1BDE8F08100206A
:100E8000BDE8F0814FF0FF3070474FF0FF30BDE814
:100E9000F08100BFE0090020E409002010B54FF404
:100EA00000421D4B5A600B201C4CA0470C20A04751
:100EB0000D20A04713204FF06051194CA04714207B
:100EC0004FF06051A04723201649A0474C201649F7
:100ED000A04716484FF4C0614FF00062144B98478A
:100EE0001C204FF0C051A0471D204FF0C051A0471B
:100EF0001E204FF0C051A0471F204FF0C051A04707
:100F00001A204FF0C051A0471B204FF0C051A047FE
:100F100006200849A04710BD50140E405519400046
:100F2000C51540007900002859000028000E0E4029
:100F3000E91640000100002801230360704700BF4C
:100F400041B1436843F480734360436843F0100346
:100F5000436007E0436843F480734360436823F0D1
:100F60001003436000207047016270474368012905
:100F700006D823F4981343EA0141416000207047EA
:100F80000120704710B4446824F07C5424F47F445A
:100F9000090289B20C4312B144F4001401E024F4B4
:100FA00000141B0603F07C531C43446000205DF8D2
:100FB000044B7047012904D801238B4003610020B2
:100FC00070470120704700BFC0F8941000207047A0
:100FD00070B44FF080435D689C68D868D9695A6DD9
:100FE00080261E605D609C60D860D9615A650522CC
:100FF0001A6070BC704700BF08B501F03F0318438A
:1010000011F4807F0CD011F4006F02D040F48450B2
:1010100006E011F4005F14BF40F4865040F48250A3
:1010200011F4804F18BF40F400604FF080431A6104
:101030005861184601F48052036C32B113F41F0F4B
:101040000AD0144B9847002008BD13F41B0F03D09F
:10105000104B9847002008BD13F0010FECD011F49D
:10106000005F0ED1012008BD0B6C013A03D1094B82
:101070009847002008BD03F03003202BF4D1012055
:1010800008BD4FF080431B6C4FF0FF324FF08041A2
:10109000F1E700BFD10F400008B51220074B984779
:1010A0004FF0804372229A60DA6111225A654FF440
:1010B000E0625A6005221A6008BD00BF5519400061
:1010C00000280CBF04200020704700BF012070479B
:1010D00033B14FF08040436D43F48073436505E0C6
:1010E0004FF08040436D23F4807343654900124BF9
:1010F000994209D81148B0FBF1F301FB130101B18A
:10110000013313B1013B00E000234FF080414868F8
:1011100020F0FF0048604868DBB203434B60042ABC
:1011200004D0082A0CBFC022002200E080224FF029
:101130008043DA60704700BFFF0D2707000E2707C6
:10114000704700BF4FF080435A6822F460525A60E3
:1011500000221A614FF410625A611A46136C13F0A0
:10116000010FFBD0704700BF10B504460A464FF090
:101170008043596821F460515960596821F4004155
:101180005960002098612146014B984710BD00BF6F
:10119000F90F40004FF08043186A704710B4031DE8
:1011A00014304FF08044226A110E03F8041C110C15
:1011B00003F8031C110A03F8021C03F8012C043382
:1011C0008342F0D15DF8044B704700BF70B5044610
:1011D0000D469DF8101031B14FF08040416841F448
:1011E0000041416005E04FF08040416821F400413A
:1011F00041604FF08040416841F4C051416012F0BD
:10120000030F04D0416841F40051416005E04FF004
:101210008040416821F40051416004F400410029FC
:1012200014BF4FF480304FF4A02014F4803F07D057
:1012300040F40010C2F308014FF08046B16118E09D
:1012400043EA02414FF08046B16114F4003F02D0FE
:1012500040F420100DE014F4802F02D040F48010F0
:1012600007E014F4002F04D114F4801F18BF40F4D9
:101270000020002605490E6005490A80054A1380B2
:1012800021462A46044B984770BD00BF0409002040
:10129000FE08002000090020F90F400008B54FF0BB
:1012A0008041164A0B6C134203D0154B984700201F
:1012B00008BD13F0020FF5D04FF080431B6B0360A5
:1012C000104A1368043313600F4A11880F4A1288BA
:1012D00002FB01F293420ED34FF08041074A0B6CA0
:1012E000134203D0064B9847002008BD13F0006F4F
:1012F000F5D0012008BD012008BD00BF000060C07E
:10130000D10F40000409002000090020FE08002041
:10131000174B1B8803FB01F110F0030F02D113F0F0
:10132000030F06D04FF08042536843F400535360DC
:1013300005E04FF08042536823F4005353604FF0B0
:101340008043C3F800015B6813F4005F0CBF8B0897
:101350000B464FF08042C2F804310023C2F814312A
:101360000120C2F82001034A13680B441360704740
:10137000FE0800200409002008B54FF08041164AFD
:101380000B6C134209D040F202224FF08043C3F8A5
:101390002021124B9847002008BD13F4804FEFD056
:1013A0000F4B1A880F4B1B8803FB02F30E4A12687F
:1013B00093420ED84FF08041074A0B6C134203D082
:1013C000064B9847002008BD13F0006FF5D00120B0
:1013D00008BD012008BD00BF000060C0D10F400063
:1013E00000090020FE08002004090020184B1B887B
:1013F00003FB01F110F0030F02D113F0030F06D02D
:101400004FF08042536843F40053536005E04FF0BF
:101410008042536823F4005353604FF08043C3F875
:1014200008015B6813F4005F0CBF8B080B464FF09C
:101430008042C2F80C310023C2F81C314FF4807393
:10144000C2F82031034A13680B441360012070472F
:10145000FE0800200409002008B54FF08041164A1C
:101460000B6C134209D0154B984740F202224FF003
:101470008043C3F82021002008BD13F4004FEFD0B3
:101480000F4B1A880F4B1B8803FB02F30E4A12689E
:1014900093420ED84FF08041074A0B6C134203D0A1
:1014A000064B9847002008BD13F0200FF5D001200F
:1014B00008BD012008BD00BF000060C0D10F400082
:1014C00000090020FE080020040900204264B1F158
:1014D000C05F2FD007D8B1F1006F14D0B1F1805F99
:1014E0001ED039B97047B1F1205F37D004D8B1F1BF
:1014F000005F29D042607047B1F1405F2ED0B1F15A
:10150000605F2BD0F6E710B4016F046FD343214026
:1015100019400167416F446F21400B4043671AE057
:10152000036F13430367436F416F0B4023EA0203CA
:101530004367DFE7036F016F0B4023EA0203036792
:10154000436F13434367D5E7036F13430367436F49
:1015500013434367CEE742605DF8044B704700BF1A
:10156000416412F0010F14BF4166016612F00A0FC8
:1015700014BF0162416212F0020F02D0C0F8801065
:1015800004E012F0080F18BFC0F884104161016038
:10159000704700BF10B44164019C0CB1416600E08B
:1015A00001660BB1016500E041650AB1016300E02D
:1015B0004163016101605DF8044B7047C06C704786
:1015C000806C704770B582B00D46430903F5001377
:1015D00003F207735C0201F0F043B3F1005F47D000
:1015E00009D8B3F1805F21D0B3F1C05F2FD0B3F140
:1015F000006F6FD109E0B3F1405F55D0B3F1605F88
:1016000052D0B3F1205F44D064E000F01F00012607
:10161000864020464FF000613246304B984715F027
:10162000010F14BF66662666012054E000F01F001B
:101630000126864020464FF080513246274B98477E
:1016400015F0010F14BF66662666012043E000F026
:101650001F000126864020464FF0C05132461F4BE6
:10166000984715F0010F14BF66662666012032E028
:1016700000F01F000126864020464FF00051324600
:10168000164B984715F0010F14BF666626660120B9
:1016900021E000F01F030126204606FA03F12A4646
:1016A0000F4B9847304616E000F01F03012605F067
:1016B000605205EA06010091204606FA03F1B2F1F4
:1016C000605F14BF00220122C5F38003054CA047D0
:1016D000304600E0002002B070BD00BFCD144000D5
:1016E000611540009515400070B582B006460D4664
:1016F000144602F0F043B3F1005F38D009D8B3F1DB
:10170000805F1CD0B3F1C05F25D0B3F1006F50D122
:1017100009E0B3F1405F3AD0B3F1605F37D0B3F185
:10172000205F30D045E04FF000612A46224B9847B9
:1017300014F0010F14BF7566356601203AE04FF0D2
:1017400080512A461C4B984714F0010F14BF756650
:10175000356601202EE04FF0C0512A46164B9847BF
:1017600014F0010F14BF75663566012022E04FF0BA
:1017700000512A46104B984714F0010F14BF7566AC
:101780003566012016E00D4B9847012012E004F069
:10179000605204F00103009330462946B2F1605FC5
:1017A00014BF00220122C4F38003054CA04701208E
:1017B00000E0002002B070BDCD1440006115400073
:1017C000951540002DE9F84381468846124B98470D
:1017D00005464846114B9847054013D0104C04F17C
:1017E00060062368434508D16168294205D0E36853
:1017F00040469847636825EA0305B44202D0103496
:10180000002DEED1074B1B6823B1074B1B680BB1B2
:1018100048469847BDE8F883BD154000C115400013
:101820000C090020E80900200809002008B502483A
:101830000B21024B984708BD000E0E40C517400013
:1018400008B502480C21024B984708BD00100E4015
:10185000C517400008B502480D21024B984708BD46
:1018600000120E40C5174000184A136B23F0700396
:1018700018431063936E13F0080F03D009E0013B87
:1018800003D11EE04FF4006310498A6E12F0080F76
:10189000F5D00E4A136B23F0030343F002031363E6
:1018A000906E10F0080004D000207047013B03D177
:1018B00009E04FF4006305498A6E12F0080FF5D075
:1018C0007047012070470120704700BF00040E40A0
:1018D00038B111490B6A114A1A40114B13430B627C
:1018E00070470D4A136A23F45C1323F0030343F497
:1018F0005C1343F00103090289B20B431362936E38
:1019000013F0010FFBD0044A136A43F09B7343F4B6
:1019100080331362704700BF00040E40FCFFC8FE16
:1019200002003701024B986E00F48030704700BF10
:1019300000040E404FF00052014B9A62704700BF06
:1019400000040E40024B986E00F00200704700BF8A
:1019500000040E4022281ED81F280CD8114B9A696B
:10196000012383401A40934217D0012383400D4A3C
:101970001361002070470B4BD3F808212038012356
:1019800083401A4093420AD001238340054AC2F89B
:101990000031002070470120704700207047002070
:1019A000704700BF00040E4021B1436843F00103BB
:1019B00043607047436823F001034360704700BFF2
:1019C00030B485688468A54203D084688568A542E0
:1019D000FBD169B104F47C10050D05EB8505C0F35E
:1019E000034000EB450014F4800F18BF0C30086072
:1019F0004AB104F4FE41080B00EB8000C1F303215F
:101A000001EB4001116043B1C4F3021202EB820208
:101A100004F00F0404EB42041C6030BC704700BFAC
:101A2000F0B4049EC568C468A54203D0C468C56804
:101A3000A542FBD1A1B104F47F40050B05EB850560
:101A4000C0F3032000EB4500C4F3021505EB850746
:101A500004F00F0505EB4705642707FB0500086048
:101A60004AB104F4F811080D85002844C1F303417C
:101A700001EB400111604BB104F07C52110F01EBFE
:101A80008101C2F3036202EB41021A6016B1C4F392
:101A900042543460F0BC704710B4AC2303600B6850
:101AA0004A68B3FBF2F31B095C1E4FF6FE729442C8
:101AB0000AD803628B68436040F20223C0F82031E9
:101AC00050230360002000E001205DF8044B7047C4
:101AD0008160704740697047436913F0020F1ABF75
:101AE000C161002001207047436913F0010F1DBF41
:101AF00083690B7000200120704700BF436913F019
:101B0000020F1DBFC1F30801C16100200120704711
:101B1000436913F0010F05D08369C3F308030B6019
:101B20000020704701207047FEE700BF08B5204B3A
:101B3000204A9A4213D9204B1D4A9A421FD211467D
:101B4000043203339B1A23F003030433194A13446A
:101B500052F8040B41F8040B9A42F9D10FE0144BF0
:101B6000144A9A420BD2144B114A9A1A13488118FC
:101B70002AB151F8042943F8042D8142F9D100BF5C
:101B80000F4B104A9A420BD2131D0F4AD21A22F061
:101B900003021A44043B002143F8041B9342FBD187
:101BA0000A4B0B4A9A600B4B98470B4B9847FEE742
:101BB00000000020FCB04000D4080020F8B0400035
:101BC000AC2C0020D4080020AF2C002000ED00E059
:101BD0000000400069484000ED3C40003D4B1B6B5D
:101BE00003F00303032B5DD8DFE803F0020E2B2B79
:101BF000394B5B6913F0800F14BF4FF400424FF470
:101C0000FA42364B1A604DE0324B1B6A13F0807F6C
:101C100003D0334A314B1A6044E0324A2F4B1A60EA
:101C20002C4B1B6A03F07003102B02D0202B04D026
:101C300038E02D4A294B1A6034E0294A274B1A60B4
:101C400030E0244B1B6A13F0807F03D0244A234BDF
:101C50001A6012E0234A214B1A601E4B1B6A03F0E4
:101C60007003102B02D0202B04D006E01E4A1B4B21
:101C70001A6002E01A4A194B1A60164B1B6B03F0EC
:101C80000303022B134A07BF936A926AD36AD26A8C
:101C90001248C3F30A41036801FB0333D2B2B3FB1A
:101CA000F2F303600B4B1B6B03F07003702B07D137
:101CB0000A4A13680D49A1FB03135B0813607047C0
:101CC000044B1A6B0549C2F302120B68D3400B6038
:101CD000704700BF00040E4010140E403400002076
:101CE000001BB70000093D0000127A00ABAAAAAAA7
:101CF000124B984204D84FF08062114B1A60704723
:101D0000104B984203D8104A0D4B1A6070470F4B86
:101D1000984203D80E4A0A4B1A6070470D4B9842FE
:101D200003D80D4A064B1A6070470C4B984294BF7B
:101D30004FF004220A4A024B1A607047FF2C31010F
:101D4000000A0E40FF59620200010004FF8693035F
:101D500000020004FFB3C40400030004FFE0F50523
:101D600000050004094B1B6813B9094A074B1A60A8
:101D7000064B1B681A180749914204DB1046034AB8
:101D80001060184670474FF0FF3070477C09002004
:101D9000B05C0020FCFF01204FF0FF30704700BF17
:101DA0004FF400534B600020704700BF0120704784
:101DB0000020704710B504460F4800210F4B98478C
:101DC000012C12D820460E4B9847032804D12046F8
:101DD0000B4B984703280AD058B92046094B98471F
:101DE000002814BF0420002010BD012010BD0120D8
:101DF00010BD012010BD00BF60140E40A9194000A5
:101E00009D0D4000CD0D400008B5054B984720B111
:101E100002280CBF0320012008BD002008BD00BF20
:101E20009D0D40002DE9F04F83B083460D461446CA
:101E30001F46164B9847F0B10646584601A9144B69
:101E40009847B04606FB0742019B03FB06639A4294
:101E500013D8B9469FB176024FF0000A0D4F58468D
:101E600021462A46B84760B90AF1010A444435447C
:101E7000CA45F4D106E0012004E0042002E000207D
:101E800000E0012003B0BDE8F08F00BFC50D4000A9
:101E9000B10D4000E10D40002DE9F04F83B08346C5
:101EA0000D4614461F46164B9847F0B10646584655
:101EB00001A9144B9847B04606FB0742019B03FB60
:101EC00006639A4213D8B9469FB176024FF0000AD2
:101ED0000D4F584621462A46B84760B90AF1010A13
:101EE00044443544CA45F4D106E0012004E004200E
:101EF00002E0002000E0012003B0BDE8F08F00BF49
:101F0000C50D4000B10D4000F90D400010B582B084
:101F10001446032923D8DFE801F01B060E02012333
:101F2000136000201EE001A90F4B9847019B01336D
:101F30002360002016E00D4B9847431EDBB2012BB7
:101F400003D9042801D008280BD10020207009E013
:101F5000074B984700280CBF0020032002E0042014
:101F600000E0012002B010BDB10D4000C50D4000E1
:101F70009D0D400030B58BB0114C204609A908AA30
:101F800007AB104DA84703AB0093204606A905AA4E
:101F900004AB0D4CA047049B1B04059843EA40503A
:101FA000079B0343099843EAC023089843EA401378
:101FB0000698A0F2BC7043EA40600BB030BD00BF91
:101FC00060140E40C1194000211A40003AB1013896
:101FD0008A1811F8013B00F8013F9142F9D170478E
:101FE00022B1821800F8011B9042FBD1704700BF5C
:101FF00002398369023B99423DBF8278C36A02FB82
:1020000001300020704700BF00F10B010023DA010E
:1020100042EA530310F8012B52FA83F3DBB28842F1
:10202000F5D11846704700BF78B108B5027872B193
:10203000C2888A420DD14078074B984700F00100D2
:10204000002814BF0320002008BD09207047092084
:1020500008BD092008BD00BF091E400038B5044670
:102060000A46407804F1340101231D4DA84780BB86
:1020700094F8332294F8323243EA02231BB2194A0D
:10208000934228D194F86D1094F86C20130443EA1D
:10209000016294F86A30134394F86B2043EA0223F8
:1020A00023F07F43104A934217D094F8890094F8A4
:1020B00088301B0443EA006094F88630034394F8A8
:1020C000870043EA002020F07F43981A18BF0120C0
:1020D00038BD032038BD022038BD002038BD00BF08
:1020E000251E400055AAFFFF46415400F8B503687D
:1020F0001C78303C092C08D85D783A2D07D1023382
:102100000360072C00F2498102E0002400E0002473
:10211000C04B53F824500D60002D00F0408116464E
:102120002B7883B16878BC4B984710F0010F0AD127
:10213000002E00F0368100F00400C0B200280CBF71
:1021400000200A20F8BD00232B70E0B26870B34B6A
:10215000984710F0010F40F026811EB110F0040FD7
:1021600040F0238128460021AD4B9847012817D124
:1021700095F8F631002B00F01A8195F8FD2195F8BD
:10218000FC311B0443EA026395F8FA41234395F8B6
:10219000FB4143EA042428462146A14B984700E02E
:1021A0000024032800F00581002840F0048195F800
:1021B000402095F83F3043EA02231BB2B3F5007F7D
:1021C00040F0FB8095F84B1095F84A3053EA012116
:1021D0000DD195F85B2095F85A301B0443EA026351
:1021E00095F858100B4395F8591043EA01212962DC
:1021F00095F844E085F803E00EF1FF33DBB2012BE4
:1022000000F2DD8095F84130AB70002B00F0D980F2
:102210005A1E1A4240F0D78095F8467095F845202E
:1022200042EA07272F8117F00F0F40F0CE8095F874
:10223000480095F8472052EA00220DD195F85760E2
:1022400095F85620120442EA066695F85420324367
:1022500095F8550042EA002295F8436095F842004F
:1022600050EA062000F0B3800EFB01FE00EB1716CB
:102270007644B242C0F0AD80921BB2FBF3F3002B68
:1022800000F0A98040F6F57293428CBF0222012231
:102290004FF6F57C634500F2A880E4E095F8630012
:1022A00095F86220120442EA006095F8602002432B
:1022B00095F8610042EA0022AA629B0003F2FF1334
:1022C000B1EB532FC0F08980B4E07044A862022AB9
:1022D0000FBF5B0003EB430003F0010303EB50036C
:1022E00092E095F8332295F8323243EA02231BB28A
:1022F0004C4A934241D195F8372095F836301B046B
:1023000043EA026295F83430134395F8352043EAE6
:102310000223454A934232D195F81B2295F81A328E
:102320001B0443EA026295F81832134395F8192208
:1023300043EA02233D4A934223D195F8232295F89C
:1023400022321B0443EA026295F82032134395F8C7
:10235000212243EA0223EB6095F81F2295F81E32F2
:102360001B0443EA026295F81C32134395F81D22C0
:1023700043EA02232B61032204E0032202E003224A
:1023800000E003222A702A4A138801339BB213808B
:10239000EB80002028632871F8BD0B20F8BD0C20CD
:1023A000F8BD0020F8BD0320F8BD0A20F8BD0D20BF
:1023B000F8BD0120F8BD0D20F8BD0D20F8BD0D20A1
:1023C000F8BD0D20F8BD0D20F8BD0D20F8BD0D2085
:1023D000F8BD0D20F8BD0D20F8BD0D20F8BD0D2075
:1023E000F8BD0D20F8BD0D20F8BD0233AB612644C9
:1023F000EE6220446862002FF1D14FE74FF0FF33C7
:102400002B610023EB60BDE703F2FF13B1EB532F09
:10241000E7D3F3E784090020091E4000B51D400002
:102420005D20400055AAFFFF525261417272416126
:10243000800900204FF0FF332B610023EB606B71AC
:1024400095F8652095F8643043EA022222446A61D7
:10245000687805F134010123074CA04700283FF4B8
:1024600040AF03228EE70233AB612644EE62204484
:102470006862002FB7D028E7251E40002DE9F047FD
:10248000076B8F4231D00E46044603790BB300F13F
:102490003408407841463A4601231A4DA84738BBD4
:1024A00000232371226A636A13449F4211D2E578A4
:1024B000012D0ED94FF0010ADFF84890236A1F441E
:1024C000607841463A465346C847013DEDB2012D7A
:1024D000F4D186B1607804F13401324601230A4D0B
:1024E000A84758B92663BDE8F0870020BDE8F0870B
:1024F0000120BDE8F0870020BDE8F0870120BDE89D
:10250000F08700BF991E4000251E400001295FD9B9
:10251000F8B5836999425DD20C4606460378022BD2
:1025200028D0032B38D0012B56D101EB5107416A3B
:1025300001EB5721304B9847002850D1C7F30803CF
:10254000334493F834500137716A304601EB572118
:10255000294B9847002845D1C7F30807F11991F88E
:10256000340045EA002014F0010F14BF0009C0F345
:102570000B00F8BD416A01EB14211F4B9847A0BB2B
:10258000610001F4FF71731893F83430314491F80D
:10259000350043EA0020F8BD416A01EBD411164B27
:1025A000984728BBA10001F4FE71721892F836001A
:1025B00092F837301B0643EA004392F8350043EAAD
:1025C0000020314491F83430184320F07040F8BDB9
:1025D000012070470120F8BD4FF0FF30F8BD4FF0EB
:1025E000FF30F8BD4FF0FF30F8BD4FF0FF30F8BDC1
:1025F0004FF0FF30F8BD00BF7D244000F8B5054620
:102600000C46E9808168012938D003689A699142B3
:1026100036D271B91A78032A01D1996A49B90022D0
:10262000EA601A89A2422DD99B6A03EB14132B612D
:102630001BE09E783601B44210D3164F2868B84785
:102640000146B0F1FF3F1FD001281FD92B689B69BD
:1026500098421DD2A41BA4B2A642EFD9E960286813
:102660000D4B984700EB1410286104F00F042B6801
:1026700003EB441434346C610020F8BD0220F8BD33
:102680000220F8BD0220F8BD0120F8BD0220F8BDEF
:102690000220F8BD0D254000F11F40002DE9F0415A
:1026A0000C4601297FD905461746836999427CD299
:1026B0000378022B3ED0032B4ED0012B6BD101EBC4
:1026C0005108416A01EB5821434B984706460028C0
:1026D00066D1C8F3080314F0010F16D02B4493F809
:1026E000342002F00F02F9B242EA011283F83420DA
:1026F00008F1010801232B71696A284601EB582172
:10270000354B9847002848D151E02B4483F834706A
:1027100008F1010801232B71696A284601EB582151
:102720002D4B984700283AD146E005EB080383F883
:10273000347035E0416A01EB1421274B9847064677
:1027400070BB640004F4FF742B1983F83470C7F372
:10275000072783F8357023E0416A01EBD4111E4B43
:1027600098470646E0B9A40004F4FE742A1992F8CA
:1027700037301B062C4403F070431F4384F8347039
:10278000C7F3072382F835303B0C82F836303F0E12
:1027900082F8377004E0022602E0064600E00646B2
:1027A00001232B7114E0022612E0022610E0C8F388
:1027B0000808C7F30717B8E7C8F3080805EB0803CC
:1027C00093F8343023F00F03C7F303271F43ACE71C
:1027D0003046BDE8F08100BF7D2440002DE9F8437C
:1027E0000546884631B9C6686EB183699E4228BFE6
:1027F000012609E02C4B9847012842D9AB69984241
:1028000050D3464600E0012634464FF00209264FD9
:102810000134AB699C4202D3012E35D94C4628467F
:102820002146B84738B1B0F1FF3F30D0012832D04F
:10283000B442EDD132E02646284621466FF0704280
:102840001A4B98470346A8B9B8F1000F06D028469E
:1028500041462246154B9847034658B9EE602B690E
:10286000B3F1FF3F1DD0013B2B6101236B7120466B
:10287000BDE8F883012B0CBF4FF0FF300120BDE80D
:10288000F8830120BDE8F8830020BDE8F8834FF00D
:10289000FF30BDE8F8830120BDE8F8830020BDE8E3
:1028A000F8832046BDE8F8830D2540009D264000B2
:1028B0002DE9F8430D46012927D904468369994239
:1028C00025D2184F4FF00009DFF85C8018E0204651
:1028D0002946B8470646E0B101281CD0B0F1FF3FB9
:1028E0001BD0204629464A46C0470346B0B9236953
:1028F000B3F1FF3F03D001332361012363713546F8
:10290000A3699D42E3D3002308E0022306E00223EB
:1029100004E0002302E0022300E001231846BDE8A2
:10292000F88300BF0D2540009D2640002DE9F84F9B
:10293000C4880134A4B2002C6DD00369002B6DD083
:102940000E46054614F00F075CD101330361C168E0
:1029500021B903681B89A34263D953E000688378D7
:10296000013B13EA14134DD13B4B98478046012895
:102970005AD9B0F1FF3F5AD02868836998453AD3B5
:10298000002E57D0E968354B98478046002854D030
:10299000012855D0B0F1FF3F55D028680021304BB9
:1029A0009847002852D12868343000214FF4007233
:1029B0002C4B98472E68304641462B4B9847306346
:1029C00000264FF0010BB246DFF894900BE083F83D
:1029D00004B028685146C8470136002839D12A6812
:1029E000136B01331363F1B22B689A788A42EED8E5
:1029F0001A6B521A1A63C5F80C80286841461A4BA4
:102A000098472861EC802B6803EB471334336B61E4
:102A10000020BDE8F88F0420BDE8F88F0420BDE851
:102A2000F88F0420BDE8F88F0220BDE8F88F012060
:102A3000BDE8F88F0420BDE8F88F0720BDE8F88FC7
:102A40000220BDE8F88F0120BDE8F88F0120BDE825
:102A5000F88F0120BDE8F88F0D254000DD274000EC
:102A60007D244000E11F4000F11F40002DE9F04FA0
:102A700087B005460021634B9847002840F0A780A7
:102A80004FF0FF0AD146604F604B0D330193DFF8E2
:102A900088B128682969B847002840F099806C6996
:102AA0002678002E00F09580E37A03F03F02E52EB1
:102AB0007AD013F0080F02D00F2A78D101E00F2A44
:102AC00055D1D5F81C80B8F1000F78D016F0400F22
:102AD00006D094F80DA006F0BF06EB882B8404E026
:102AE000B14518BF4FF0FF0969D1637B029353458D
:102AF00060D1237823F04003013B03EB430203EB57
:102B00008209DFF808A10120059646460495019D3B
:102B10001AF8012BA3185978A35C43EA012390B15A
:102B200018463B4B98478046B9F1FE0F5DD809F136
:102B30000103039336F81900354A9047804556D172
:102B4000DDF80C9003E04FF6FF72934251D1AA4595
:102B5000DED1B046059E049D237813F0400F3ED091
:102B600000283CD038F81930002B38D042E0B9F1B9
:102B7000000F03D12046D84750452CD04FF6FF73A5
:102B80002B84AB69DA7A12F0010F16D104F10B0035
:102B900001E0844221D014F8011B13F8012B91426B
:102BA000F7D04FF0FF090AE04FF0FF0907E04FF0C0
:102BB000FF0904E04FF0FF0901E04FF0FF0928464C
:102BC0000021144B984700283FF463AF17E016E04C
:102BD00015E0042013E0002011E000200FE0013E8A
:102BE0005FFA86F9DDF808A0E9E7049D02E0049D9C
:102BF00000E0049DDDF808A04FF0FF09DFE707B013
:102C0000BDE8F08FFD2540007D244000B8A74000BE
:102C1000393740002D294000092040002DE9F04FB0
:102C200089B004468769D0F81CA005A839460C2253
:102C3000A74B98479DF81F3013F0010F72D0002367
:102C4000FB72E361384605A90B22A14B9847012589
:102C50002B462026DFF89882DFF8749214E038467D
:102C600005A90B22C847052D0DD92B465146DA037D
:102C700042EA530331F8022B12FA83F39BB20A881B
:102C8000002AF4D100E02B460DF1140E072203F0C8
:102C90000F0000F13001392988BF00F13701013AF6
:102CA0000EF8011DC3F30F13002BF0D196467E21C1
:102CB00008AB134403F8141C62B13B78202B0BD0F3
:102CC000394600230133734508D011F8010F20283D
:102CD000F8D104E0134602E0002300E01346F9189F
:102CE0000133072A05D808A8104410F8140C013243
:102CF00000E0304601F8010B072BF1D92046C04710
:102D000028B90135ADB2642DA9D10720DCE0642DCE
:102D100000F0C080042840F0BF809DF81F30FB7297
:102D2000C4F81CA09DF81F3013F0020F14D0BAF89D
:102D300000303BB1002301339BB23AF81320002A44
:102D4000F9D100E000231933624E86FB0326DB171E
:102D5000C3EBA606B6B200E00126204600215E4B7A
:102D60009847002840F099804FF000094D465B4F8E
:102D7000CA46DFF8748120682169B84703460028F5
:102D800040F0A18063691B78E52B00D03BB90DB9F9
:102D9000B4F806900135ADB2B54201D17EE055469A
:102DA00020460121C04703460028E4D08BE020469E
:102DB0004946494B9847034600287AD1A069484BB9
:102DC00098470190751EADB2444F464B03F10D0676
:102DD00020682169B847034600286AD1D4F81C90BE
:102DE00060695FFA85FB9DF8043043730F23C3725B
:102DF000002303738376C3760BF1FF3202EB4201AB
:102E000002EB8101374A4FF6FF7E4FF0FF0A734510
:102E100047D001F1010C39F81130117843540144C5
:102E20004FEA132881F8018013B96146734600E028
:102E300061460132B242EAD14FF6FF72934202D0AC
:102E400039F811300BB94BF0400B80F800B0236813
:102E500001221A7120460021234B9847034640BBAC
:102E6000013DADB2002DB3D125E0666930460021A9
:102E700020221E4B98473046A1690B22144B9847DD
:102E8000A369DB7A03F018033373236801221A71F4
:102E9000284619E0072017E016E015E0012E86D835
:102EA00009E092F800C000F80CA084448CF801A05E
:102EB000BFE7184608E020682169084B9847054697
:102EC0000028D2D000E0184609B0BDE8F08F00BF5E
:102ED000CD1F40004FECC44EFD2540007D24400036
:102EE00009204000B8A740002D294000E11F400004
:102EF0006D2A400070B5044600212D4B98470346CB
:102F0000002852D12378032B47D16379002B44D07A
:102F10000025256304F13406304629464FF400723B
:102F2000244B9847552384F83232AA2384F833324D
:102F3000522384F8343084F83530612384F83630F5
:102F4000412284F83720722184F8181284F819126B
:102F500084F81A2284F81B32236984F81C32C3F3E4
:102F6000072284F81D221A0C84F81E221B0E84F8F6
:102F70001F32E36884F82032C3F3072284F8212249
:102F80001A0C84F822221B0E84F823326078314612
:102F900062690123084EB0476571607800210A46D6
:102FA000064B9847031C18BF0123184670BD00BF8D
:102FB0007D244000E11F4000991E40000D1F40008D
:102FC0002DE9F04F83B0824689460B782F2B01D034
:102FD0005C2B01D109F101090023CAF8083099F8E6
:102FE00000301F2B08D850460021B94B98470346A4
:102FF0000022CAF8142066E1DFF8ECB2C84619F8DE
:10300000013B2F2BFAD05C2BF8D0DAF81C5098F843
:1030100000001F2840F22E812F2800F031815C280B
:1030200000F03181AF1E46460124A1460AE02F2858
:1030300000F02B815C2800F02881B3F5807F00F040
:1030400038811C464946D8470146002800F03181A6
:103050007F2809D8222900F0E9809E4A12F8013F12
:1030600013B19842FAD1E1E027F8021F631C16F869
:10307000010F1F28DBD8FFE0002C00F0D78005EB04
:10308000440232F8023D202B01D02E2B02D1013C0C
:10309000F7D1CBE0002C00F00C8167004FF0000866
:1030A00025F81480DAF8180020210B228A4B984763
:1030B000A91E434600E0013331F8022F202AFAD03E
:1030C0002E2AF8D0002B00F0E48046F00306E0E062
:1030D000013C05D14FF0080800220192009204E063
:1030E00032F8021D2E29F3D1F4E75F1C35F81300E6
:1030F000002863D0202804D02E2806D1BC4200F03E
:10310000DA8046F003063B46EFE7019B434502D2D7
:10311000BC421BD1CFE0B8F10B0F07D146F003063C
:10312000DAF818301A78E52A5BD14DE0BC4203D0BA
:1031300046F00306A74241D8009B9B00DBB20093F8
:1031400023464FF00B0808220192CEE77F2840F279
:10315000A7800021D8470346002800F0B1805F4ACD
:10316000134413F8801C88B246F0020648B12B299C
:1031700007D05B4A12F8013F002B00F09380994280
:10318000F8D146F003065F200FE0009B43F00203F6
:1031900000930AE0A0F161039BB2192B05D8009BB4
:1031A00043F001030093203880B2DAF81830019917
:1031B0000A4658543B460132019296E7DAF8183035
:1031C0001A78E52A06D101E04FF00B0805221A70A3
:1031D000009B00E0009BB8F1080F02D19B00DBB21E
:1031E0000093009A02F00C030C2B03D002F00302B0
:1031F000032A01D146F0020616F0020F0AD1009A06
:1032000002F00302012A08BF46F01006042B08BF93
:1032100046F00806DAF81830DE725046314B98470F
:10322000DAF81830DA7A034660B101E006234AE0A2
:10323000042848D102F00403DBB2002B14BF03467C
:10324000052340E012F0040F3DD1DAF81420D37AC0
:1032500013F0100F0CD0517D137D43EA0121D37E72
:10326000927E42EA032343EA0143CAF80830C5E6E6
:10327000052328E00024012308EB03090426FBE6CC
:103280000024012301E00024012308EB03090026A8
:10329000F2E6023FEA19E95B2E293FF41BAF17E77C
:1032A000014664E7A0F141039BB2192B7FF66DAF95
:1032B00070E7062307E0B8F10B0F7FF43DAF2DE771
:1032C00046F002065DE7184603B0BDE8F08F00BF88
:1032D000FD25400070A74000E11F4000C8A7400046
:1032E0007CA740006D2A4000F536400007280DD825
:1032F000074B53F820300BB100221A7009B100239C
:103300000B70034B43F82010002070470B207047D0
:10331000840900202DE9F041ADF50E7D05460191AF
:1033200016460023036002F01F0701A885A902F0DA
:103330001E025E4B984782AB8B9302AB8C930028A6
:103340007FD185A801995A4B98478A9C034600284B
:103350007DD1002C40F084807DE085A8554B9847B6
:1033600047F008078A9C034648B180E0E37A13F0EF
:10337000110F40F0938016F0040F40F0918017F089
:10338000080F76D04C4B9847A073C0F30723E37324
:10339000030C2374000E60740023E37223776377B9
:1033A000A377E377667D227D42EA0626E27EA17E50
:1033B00041EA0222A376E37623756375859801239B
:1033C000037152EA064654D0D0F8308031463B4B68
:1033D0009847034600284AD18598721EC26041462C
:1033E000374B9847034638B15BE016F0020F40D0E8
:1033F00013F0010F38D13CE047F02007859B1B6B91
:10340000EB612C62AF71617D237D43EA0121E37E94
:10341000A27E42EA032343EA01432B61E27FA37FBA
:103420001B0443EA0263227F1343627F43EA0223C1
:10343000EB600023AB60AB61859A2A60D288AA80DA
:103440002FE003468A9C16F01C0F1AD10FE016F0ED
:103450001C0F16D10BE016F01C0F15D1062306E049
:1034600016F01C0F82D114E0072300E00423C3B937
:10347000C8E717F0080FBFD1C0E747F008078A9CDC
:10348000F5E7042BF9D168E747F008078A9C062383
:10349000EDE7E37A13F0100FE8D1A6E7072300E089
:1034A000082318460DF50E7DBDE8F081ED204000A3
:1034B000C12F40001D2C4000751F4000B128400066
:1034C0007D2440002DE9F04F83B00446894615461F
:1034D00098460023C8F800300068A188544B9847EC
:1034E000002840F09B80A37913F0800F40F0978074
:1034F00013F0010F00F09580E368A6689E1BAE42B2
:1035000028BF2E46002E00F08E80DFF838B1A36869
:10351000C3F30802002A57D120688778013F07EAE1
:10352000532717F0FF0717D10BB9206902E0616933
:10353000404B9847012805D8A37963F07F03A37116
:10354000022071E0B0F1FF3F05D1A37963F07F0362
:10355000A371012068E06061D4F800A05046616961
:10356000354B9847034628B9A37963F07F03A371CD
:10357000022059E03B440193750A23D09AF80230A7
:10358000EA199A4288BFDD1B9AF801004946019A60
:10359000EBB22A4FB84728B1A37963F07F03A37138
:1035A000012041E021680B7953B1086B019BC01ADF
:1035B000854205D909EB402034314FF40072D847D9
:1035C0006D021DE0019BA361A568C5F30805C5F563
:1035D0000075B54228BF35462068A169184B984749
:1035E00028B1A37963F07F03A37101201CE0A168D7
:1035F000C1F3080123681944484634312A46D847A4
:10360000A944A3682B44A360D8F800302B44C8F821
:103610000030761B7FF47BAF002005E004E0022041
:1036200002E0072000E0002003B0BDE8F08F00BFFB
:10363000292040000D254000F11F4000251E4000BC
:103640007D244000CD1F400038B504460068A188A5
:103650001E4B98470346002836D1A27912F0200F5E
:1036600032D02068E1691A4B9847034660BB256A4F
:10367000EB7A43F02003EB72E3682B77A3891B0AF4
:103680006B77E389AB77E37BEB772369AB76238AB0
:103690001B0AEB76638A2B75638A1B0A6B750D4BCD
:1036A0009847A875C0F30723EB75030C2B76000E23
:1036B0006876A37923F02003A371236801221A718D
:1036C0002068054B98470346184638BD292040001E
:1036D0007D244000751F4000F52E400010B50446C3
:1036E000034B9847034608B900222260184610BDD4
:1036F000493640007F281BD911B9C72808D112E0EC
:10370000FF2814D8A0F180030A4A32F8130070474A
:10371000084A012332F8021F814205D001339BB2CF
:10372000802BF7D100E000238033D8B2704700200F
:10373000704700BF48A84000612809D0084900220E
:10374000013231F8023F4BB18342F9D108B904E0AC
:103750000022044B33F8120070470020704700BF6E
:1037600048A9400028AB4000F0B583B005460C46A0
:1037700000230193184B984207D11F46174E384635
:103780002146B0470028FAD117E0154B984207D1DF
:103790001E46124D30462146A8470028FAD118E0AF
:1037A000104B984209D11E460F4D304601A9A8473B
:1037B0000028FAD1019B23700BE00C4B9D4208D1ED
:1037C0001E46094D304601A9A8470028FAD1019BA1
:1037D000237003B0F0BD00BF00060E40E91A4000A0
:1037E00000080E4000400240111B400000800240D3
:1037F00070B50C46184B984208D11E46174D3046FE
:103800002146A8470028FAD1012070BD144B9842E8
:1038100008D11E46114D30462146A8470028FAD14E
:10382000012070BD0F4B984208D11E460E4D304608
:103830002146A8470028FAD1012070BD0B4B9842C1
:1038400008D11E46084D30462146A8470028FAD127
:10385000012070BD002070BD00060E40D91A400046
:1038600000080E4000400240FD1A40000080024067
:1038700008B5254B1B7813F0010F04D1224B1B78A0
:1038800013F0020F3FD0204B1B7813F0080F1F4B93
:1038900018884FEA400303F1010314BF1C4A1D4A74
:1038A000D15C12F8103003EB012189B2174B1B8851
:1038B00001339BB240F69C02934202D8134A138014
:1038C0001AE00022114B1A800F4B1B7813F0080FDF
:1038D00009D00D4B1A7802F0F7021A701A7802F02C
:1038E000FD021A7008E0084B1A7842F008021A70BC
:1038F0001A7802F0FE021A7041F30B11064801F526
:103900000061064B984708BDEE090020EC09002035
:103910006C1B0020F009002000C00340690F40002C
:1039200070B5ADF5607D0246D8A89B499B4B984782
:103930009B48D8A99B4B98479B4E9C4D0020B04775
:1039400001280AD19A48974CA0479A48A0470024DA
:103950002046A8470228FBD1F0E70028EED1964880
:10396000904B98474BA800214FF40D72934B98470A
:1039700000204BA9924B98470B2804D191480B216A
:10398000884B9847FBE09048864CA0478F48A0475B
:1039900042A8D8A901228E4B9847014610B1894808
:1039A000A047ECE088487F4CA0478A48A047002306
:1039B000019342A802A904220DEB0203864CA04702
:1039C000014618B18548774B9847D8E0019B042BF6
:1039D00010D19DF80B209DF80A301B0443EA0262C7
:1039E0009DF8083013439DF8092043EA02237C4ADE
:1039F000934203D07B486B4B9847C0E07A48694BB1
:103A000098471424744D42A802A9012201ABA8478B
:103A1000014618B16B48634B9847B0E09DF80830F9
:103A2000572B16D142A802A9032201ABA8479DF843
:103A30000830412B0DD19DF80930562B09D19DF846
:103A40000A30452B05D16948564B9847C824624D2A
:103A500007E0631E13F0FF04D5D16548514B98472A
:103A60008DE042A802A9012201ABA847014618B186
:103A700054484C4B984782E09DF80830642B44D161
:103A800042A802A9032201ABA8479DF80830612B88
:103A90003BD19DF80930742B37D19DF80A30612B4A
:103AA00033D154483F4DA84742A802A904220DEB48
:103AB0000203494CA0479DF80B409DF80A301B04B7
:103AC00003EB04649DF8083023449DF8094003EBA0
:103AD000042449482146A8472046484B9847484B6C
:103AE00098472BA3D3E90023464CA0470022464B1E
:103AF000464CA047464B984701B24648A84700228B
:103B0000454B1A70454D1C4607E0013C14F0FF047C
:103B1000A7D14348234B984731E02B7813F0FF0F90
:103B200003D000223D4B1A7022E0237813F0010FDE
:103B3000FBD142A83B4941F23A1201AB264EB047B5
:103B4000237843F001032370237813F0020FFBD195
:103B500042A8354941F23A1201AB1F4EB0472378D3
:103B600043F002032370019A41F23A139A42D4D0EF
:103B70002E4800212E4B98472E480A4B984742A8C2
:103B80002D4B98470DF5607D70BD00BFAFF30080F1
:103B9000000000008088E54008AD4000854A4000F4
:103BA00010AD4000B9484000F90B4000BD02400094
:103BB0001CAD400030AD400058AD4000E148400031
:103BC000ED32400068AD400078AD400080AD40006F
:103BD00015334000A0AD4000C5344000DCAD4000CE
:103BE00052494646FCAD40000CAE400018AE4000C5
:103BF00024AE400034AE400048AE4000B94740001B
:103C0000314140002D4440000000E03FD9414000D8
:103C1000FD45400058AE4000EE090020A6090020F6
:103C20008CAE4000F00900206C1B002000C0034057
:103C3000690F4000A4AE4000DD36400000B583B0FF
:103C40001D481E4B984710F0010F31D01A480DF156
:103C500007011B4B98471B4A11784B1CDBB21370B2
:103C60009DF80720184842541C2B02D90021154BFF
:103C700019700D2A1CD11449124A13780B440020E4
:103C800003F8010C107011480522114B984730B908
:103C900010481149114B98470122114B1A701148D5
:103CA000094904220A4B984710B901220E4B1A7099
:103CB00003B05DF804FB00BF00060E40D51A4000BB
:103CC000E91A4000A50900204C1B0020BCAE4000B2
:103CD0008D4B40002C1B0020511B0020D14A40007E
:103CE000A4090020C4AE4000A60900202DE9F0413F
:103CF00084B001253B4B1D70BFF35F8F62B63A4B1A
:103D000098473A4B98471E20394FB847394C2046C0
:103D1000394B984720460021384B984720460821C8
:103D200000221023364EB04720462946354B98478F
:103D300020462946344B984720464FF48571334B33
:103D40009847334B4FF42A625A60F021314A82F887
:103D5000231000269E6007221A6004F5242404F52F
:103D6000C0642D4B1C602D4A2D4B1A602D4A2E4BE2
:103D70001A602E4B01934FF4E13302934FF400632A
:103D800003930820B847204601A9294B9847DFF83C
:103D9000D480D8F8003098683146264FB847D8F814
:103DA000003058683146B84720462946224B98478C
:103DB0004FF48072214B1A60214B98472148224CC6
:103DC000A04722482249234AA047234C234D237869
:103DD00013F0FF0FFBD0002323702846204B984799
:103DE000F5E700BF30000020390D40009D0E400077
:103DF0005519400000C00340390F4000410F4000FA
:103E0000850F40006D0F4000B50F4000C90F400006
:103E100010E000E000ED00E0E4090020F137400090
:103E2000E009002069374000DC090020000E270768
:103E3000991A40007D494000D11A400000E100E09D
:103E40009D024000CCAE4000B9484000F8AE4000B2
:103E500010AF40001CAF4000A40900202C1B002024
:103E6000213940006004002081F0004102E000BFE1
:103E700083F0004330B54FEA41044FEA430594EA2A
:103E8000050F08BF90EA020F1FBF54EA000C55EA65
:103E9000020C7FEA645C7FEA655C00F0E2804FEA36
:103EA0005454D4EB5555B8BF6D420CDD2C4480EA18
:103EB000020281EA030382EA000083EA010180EA48
:103EC000020281EA0303362D88BF30BD11F0004F96
:103ED0004FEA01314FF4801C4CEA113102D04042CC
:103EE00061EB410113F0004F4FEA03334CEA133307
:103EF00002D0524263EB430394EA050F00F0A7801F
:103F0000A4F10104D5F1200E0DDB02FA0EFC22FA19
:103F100005F2801841F1000103FA0EF2801843FA0D
:103F200005F359410EE0A5F120050EF1200E012AFE
:103F300003FA0EFC28BF4CF0020C43FA05F3C0183C
:103F400051EBE37101F0004507D54FF0000EDCF1B5
:103F5000000C7EEB00006EEB0101B1F5801F1BD35E
:103F6000B1F5001F0CD349085FEA30004FEA3C0C62
:103F700004F101044FEA445212F5800F80F09A8058
:103F8000BCF1004F08BF5FEA500C50F1000041EB5C
:103F9000045141EA050130BD5FEA4C0C404141EB60
:103FA000010111F4801FA4F10104E9D191F0000F87
:103FB00004BF01460020B1FA81F308BF2033A3F10A
:103FC0000B03B3F120020CDA0C3208DD02F1140C01
:103FD000C2F10C0201FA0CF021FA02F10CE002F13C
:103FE0001402D8BFC2F1200C01FA02F120FA0CFC35
:103FF000DCBF41EA0C019040E41AA2BF01EB04517E
:10400000294330BD6FEA04041F3C1CDA0C340EDC7B
:1040100004F11404C4F1200220FA04F001FA02F3BE
:1040200040EA030021FA04F345EA030130BDC4F17C
:104030000C04C4F1200220FA02F001FA04F340EA71
:104040000300294630BD21FA04F0294630BD94F022
:10405000000F83F4801306BF81F480110134013D09
:104060004EE77FEA645C18BF7FEA655C29D094EA7A
:10407000050F08BF90EA020F05D054EA000C04BFF8
:104080001946104630BD91EA030F1EBF00210020E3
:1040900030BD5FEA545C05D14000494128BF41F082
:1040A000004130BD14F580043CBF01F5801130BDE6
:1040B00001F0004545F0FE4141F470014FF0000071
:1040C00030BD7FEA645C1ABF194610467FEA655C22
:1040D0001CBF0B46024650EA013406BF52EA0335C4
:1040E00091EA030F41F4002130BD00BF90F0000FB2
:1040F00004BF0021704730B54FF4806404F13204EE
:104100004FF000054FF0000150E700BF90F0000FA6
:1041100004BF0021704730B54FF4806404F13204CD
:1041200010F0004548BF40424FF000013EE700BF9D
:1041300042004FEAE2014FEA31014FEA02701FBF2D
:1041400012F07F4393F07F4F81F06051704792F0FF
:10415000000F14BF93F07F4F704730B54FF4607479
:1041600001F0004521F0004120E700BF50EA0102C4
:1041700008BF704730B54FF000050AE050EA010271
:1041800008BF704730B511F0004502D5404261EBE1
:1041900041014FF4806404F132045FEA915C3FF422
:1041A000DCAE4FF003025FEADC0C18BF03325FEABB
:1041B000DC0C18BF033202EBDC02C2F1200300FA70
:1041C00003FC20FA02F001FA03FE40EA0E0021FA95
:1041D00002F11444C1E600BF70B54FF0FF0C4CF47F
:1041E000E06C1CEA11541DBF1CEA135594EA0C0F35
:1041F00095EA0C0F00F0DEF82C4481EA030621EA70
:104200004C5123EA4C5350EA013518BF52EA0335AA
:1042100041F4801143F4801338D0A0FB02CE4FF05C
:104220000005E1FB02E506F00042E0FB03E54FF08C
:104230000006E1FB03569CF0000F18BF4EF0010E84
:10424000A4F1FF04B6F5007F64F5407404D25FEA80
:104250004E0E6D4146EB060642EAC62141EA555133
:104260004FEAC52040EA5E504FEACE2EB4F1FD0C75
:1042700088BFBCF5E06F1ED8BEF1004F08BF5FEAF3
:10428000500E50F1000041EB045170BD06F00046A5
:1042900046EA010140EA020081EA0301B4EB5C0452
:1042A000C2BFD4EB0C0541EA045170BD41F480114A
:1042B0004FF0000E013C00F3AB8014F1360FDEBF6F
:1042C000002001F0004170BDC4F10004203C35DA4B
:1042D0000C341BDC04F11404C4F1200500FA05F3CE
:1042E00020FA04F001FA05F240EA020001F000426F
:1042F00021F0004110EBD37021FA04F642EB0601E5
:104300005EEA430E08BF20EAD37070BDC4F10C040E
:10431000C4F1200500FA04F320FA05F001FA04F2D2
:1043200040EA020001F0004110EBD37041F10001BE
:104330005EEA430E08BF20EAD37070BDC4F12005C9
:1043400000FA05F24EEA020E20FA04F301FA05F231
:1043500043EA020321FA04F001F0004121FA04F2D9
:1043600020EA020000EBD3705EEA430E08BF20EAA9
:10437000D37070BD94F0000F0FD101F000464000E3
:1043800041EB010111F4801F08BF013CF7D041EA65
:10439000060195F0000F18BF704703F00046520069
:1043A00043EB030313F4801F08BF013DF7D043EA3A
:1043B0000603704794EA0C0F0CEA135518BF95EAF0
:1043C0000C0F0CD050EA410618BF52EA4306D1D177
:1043D00081EA030101F000414FF0000070BD50EA96
:1043E000410606BF1046194652EA430619D094EA20
:1043F0000C0F02D150EA013613D195EA0C0F05D10A
:1044000052EA03361CBF104619460AD181EA03015D
:1044100001F0004141F0FE4141F470014FF0000015
:1044200070BD41F0FE4141F4780170BD70B54FF0B0
:10443000FF0C4CF4E06C1CEA11541DBF1CEA135530
:1044400094EA0C0F95EA0C0F00F0A7F8A4EB050412
:1044500081EA030E52EA03354FEA013100F0888009
:104460004FEA03334FF0805545EA131343EA1263D2
:104470004FEA022245EA111545EA10654FEA002687
:104480000EF000419D4208BF964244F1FD0404F540
:10449000407402D25B084FEA3202B61A65EB03059C
:1044A0005B084FEA32024FF480104FF4002CB6EB59
:1044B000020E75EB030E22BFB61A754640EA0C00D9
:1044C0005B084FEA3202B6EB020E75EB030E22BF19
:1044D000B61A754640EA5C005B084FEA3202B6EB5A
:1044E000020E75EB030E22BFB61A754640EA9C0019
:1044F0005B084FEA3202B6EB020E75EB030E22BFE9
:10450000B61A754640EADC0055EA060E18D04FEAA6
:10451000051545EA16754FEA06164FEAC30343EA46
:1045200052734FEAC2025FEA1C1CC0D111F4801F13
:104530000BD141EA00014FF000004FF0004CB6E70C
:1045400011F4801F04BF01430020B4F1FD0C88BFAB
:10455000BCF5E06F3FF6AFAEB5EB030C04BFB6EBB6
:10456000020C5FEA500C50F1000041EB045170BDA9
:104570000EF0004E4EEA113114EB5C04C2BFD4EBD6
:104580000C0541EA045170BD41F480114FF0000E5A
:10459000013C90E645EA060E8DE60CEA135594EAD6
:1045A0000C0F08BF95EA0C0F3FF43BAF94EA0C0FD9
:1045B0000AD150EA01347FF434AF95EA0C0F7FF44E
:1045C00025AF104619462CE795EA0C0F06D152EAA2
:1045D00003353FF4FDAE1046194622E750EA410686
:1045E00018BF52EA43067FF4C5AE50EA41047FF497
:1045F0000DAF52EA43057FF4EBAE12E74FEA4102FA
:1046000012F5001215D211D56FF47873B3EB625224
:1046100012D94FEAC12343F0004343EA505311F04B
:10462000004F23FA02F018BF404270474FF00000DD
:10463000704750EA013005D111F0004008BF6FF01B
:10464000004070474FF00000704700BF80F000400E
:1046500002E000BF81F0004142001FBF5FEA41035A
:1046600092EA030F7FEA226C7FEA236C6AD04FEA5A
:104670001262D2EB1363C1BFD2184140484041409F
:10468000B8BF5B42192B88BF704710F0004F40F451
:10469000000020F07F4018BF404211F0004F41F46D
:1046A000000121F07F4118BF494292EA030F3FD039
:1046B000A2F1010241FA03FC10EB0C00C3F120034C
:1046C00001FA03F100F0004302D5494260EB4000DB
:1046D000B0F5000F13D3B0F1807F06D340084FEA46
:1046E000310102F10102FE2A51D2B1F1004F40EB3B
:1046F000C25008BF20F0010040EA030070474900A3
:1047000040EB000010F4000FA2F10102EDD1B0FA6D
:1047100080FCACF1080CB2EB0C0200FA0CF0AABF62
:1047200000EBC25052421843BCBFD0401843704700
:1047300092F0000F81F4000106BF80F40000013206
:10474000013BB5E74FEA41037FEA226C18BF7FEADD
:10475000236C21D092EA030F04D092F0000F08BF1F
:104760000846704790EA010F1CBF0020704712F006
:104770007F4F04D1400028BF40F00040704712F145
:1047800000723CBF00F50000704700F0004343F0AA
:10479000FE4040F4000070477FEA226216BF0846E0
:1047A0007FEA23630146420206BF5FEA412390EAA3
:1047B000010F40F4800070474FF0000304E000BF99
:1047C00010F0004348BF40425FEA000C08BF70474A
:1047D00043F0964301464FF000001CE050EA01020E
:1047E00008BF70474FF000030AE000BF50EA010223
:1047F00008BF704711F0004302D5404261EB410110
:104800005FEA010C02BF84460146002043F0B64334
:1048100008BFA3F18053A3F50003BCFA8CF2083A59
:10482000A3EBC25310DB01FA02FC634400FA02FC62
:10483000C2F12002BCF1004F20FA02F243EB020069
:1048400008BF20F00100704702F1200201FA02FCCB
:10485000C2F1200250EA4C0021FA02F243EB0200BE
:1048600008BF20EADC70704770B50F4E0F4D761B05
:10487000B61018BF002405D0013455F8043B984702
:10488000A642F9D10A4E0B4D761B06F021FCB6105C
:1048900018BF002406D0013455F8043B9847A642BF
:1048A000F9D170BD70BD00BFDCB04000DCB040008D
:1048B000E4B04000DCB040000FB400B5074983B05D
:1048C00004AB086853F8042B8168019301F030FCB5
:1048D00003B05DF804EB04B0704700BF6004002033
:1048E00070B4840746D0541E002A41D0CDB203468E
:1048F00002E0621EE4B3144603F8015B9A07F8D1A4
:10490000032C2ED9CDB245EA05250F2C45EA0545E5
:1049100019D903F110022646103E0F2E42F8105C02
:1049200042F80C5C42F8085C42F8045C02F11002A8
:10493000F2D8A4F1100222F00F0204F00F0410329A
:10494000032C13440DD91E462246043A032A46F886
:10495000045BFAD8221F22F003020432134404F04D
:1049600003042CB1C9B21C4403F8011BA342FBD1C0
:1049700070BC704714460346C2E700BF00290CBF55
:10498000022200224FF4806300F000B82DE9F041CC
:104990003A4C26680D46044690461F4616B1B36B46
:1049A000002B3CD0B8F1020F2FD8002F2DDB214671
:1049B000304603F0FDFAA18900236360A3610B0672
:1049C00027D421F0830189B2B8F1020FA1812AD046
:1049D000002D36D0B8F1010F11D089B201F00800D6
:1049E000274BF36380B225602561676178B111F0D0
:1049F000030F18BF0027A7600020BDE8F08141F039
:104A000001017B42A181A361E7E74FF0FF30BDE8E0
:104A1000F0812169304603F037FCA189D1E73046A7
:104A200003F05AFBBEE7002004F1430341F002010A
:104A300000250122A181A560236023616261BDE898
:104A4000F081002F08BF4FF48067384603F028FF3D
:104A5000054628B1A18941F0800189B2A181B9E759
:104A60004FF4806003F01CFF054618B9A1894FF090
:104A7000FF30D9E74FF48067ECE700BF6004002007
:104A8000DD7F40000EB4F0B59CB021AB0F4953F868
:104A9000042B019305466FF00044086802954FF41B
:104AA00002774FF6FF7602A90695ADF814700494CC
:104AB0000794ADF8166000F0B5F8029B00221A705A
:104AC0001CB0BDE8F04003B0704700BF6004002098
:104AD00080EA0102844612F0030F4FD111F0030F58
:104AE00032D14DF8044D11F0040F51F8043B0BD0B6
:104AF000A3F101329A4312F0803F04BF4CF8043B0B
:104B000051F8043B16D100BF51F8044BA3F1013218
:104B10009A4312F0803FA4F101320BD14CF8043BD0
:104B2000A24312F0803F04BF51F8043B4CF8044B01
:104B3000EAD023460CF8013B13F0FF0F4FEA332372
:104B4000F8D15DF8044B704711F0010F06D011F851
:104B5000012B0CF8012B002A08BF704711F0020F3F
:104B6000BFD031F8022B12F0FF0F16BF2CF8022B2A
:104B70008CF8002012F47F4FB3D1704711F8012B4D
:104B80000CF8012B002AF9D1704700BF002A3ED053
:104B900040EA010313F00303F0B425D1032A23D91B
:104BA00004680D68AC421FD1043A32D0A4F101353B
:104BB00025EA040414F0803F2ED1071D0D1D0DE0E1
:104BC00057F8043B0E68A3F10134B34224EA03040E
:104BD0000AD1043A1DD014F0803F20D1032A29467F
:104BE000384605F10405EBD803780C78A34202F1AE
:104BF000FF3209D16AB17BB110F8013F11F8014FC2
:104C0000A34202F1FF32F5D0181BF0BC70471046EA
:104C100070471046F0BC70471846F0BC7047002043
:104C2000F3E700BF2DE9F04FC1B089460A920E9319
:104C3000089003F0C1FD03681793184604F080FF45
:104C4000B9F80C3018901A0604D5D9F81030002B9A
:104C500001F08C80002330AF139325932493169397
:104C600019930B932397149315933C464E460A9D34
:104C70002B78002B00F0A980252B02D1A5E0252B55
:104C800003D015F8013F002BF9D10A9BEB1A73B141
:104C9000249A25990A98206001321944072A6360F2
:104CA0002591249272DC08340B9A1A440B922B78CB
:104CB000002B00F0B5870023691C6D788DF86F30EC
:104CC0001A460C9307934FF0FF3A4B1CA5F12001B5
:104CD000582900F2D983DFE811F07002D703D70317
:104CE0007403D703D703D703D703D703D703F0023F
:104CF0000D02D703F4011102D7037B03BA02BA02F3
:104D0000BA02BA02BA02BA02BA02BA02BA02D703A5
:104D1000D703D703D703D703D703D703D703D703C3
:104D2000D703C9028B03D7038B03D703D703D7035A
:104D3000D7036D03D703D7030503D703D703D703DF
:104D4000D703D7032303D703D7033D03D703D703E1
:104D5000D703D703D703D703D703D703D703D70383
:104D600058032C028B038B038B03FE022C02D70308
:104D7000D703E602D7037E02FB01C0037702D70305
:104D80009202D7037A00D703D7034A020898079301
:104D9000314623AA04F002FF50B93C46079B83E743
:104DA0000898314623AA04F0F9FE002800F0858116
:104DB000B146B9F80C3013F0400F0B9B18BF4FF001
:104DC000FF33184641B0BDE8F08F0A9D6FE70A93A4
:104DD000079B980640F1AD820E9B03F1070929F06D
:104DE000070303F10802D3E900890E9201234FF073
:104DF000000C8DF86FC0CDF844A0BAF1000F03DBB2
:104E0000079A22F08002079258EA090240F04C8388
:104E1000BAF1000F00F05184012B00F04F83022BF8
:104E200000F0908439464FEAD80242EA49724FEACC
:104E3000D90008F0070381469046303358EA09024A
:104E400001F8013DEFD1079A1091D20700F1448596
:104E50007B1A0D930D9A92455346B8BF134609939A
:104E600000231293BCF1000F02D0099B0133099378
:104E7000079B13F002030F9302D0099B023309939F
:104E8000079B13F0840940F00C830C9B099AC2EB3A
:104E90000308B8F1000F40F30483B8F1100F25990F
:104EA000249ADFF844A529DD53464FF0100BC24683
:104EB000A8461D4606E0AAF1100ABAF1100F04F147
:104EC000080417DD01321031072A2591249284E865
:104ED0002008F0DD0898314623AA04F05FFE002880
:104EE0007FF466AFAAF1100ABAF1100F2599249A3F
:104EF0003C46E7DC2B464546D0469A46013208EB55
:104F0000010B072ACDF894B02492C4F800A0C4F88D
:104F1000048000F37B849DF86FC00834BCF1000F5F
:104F20000FD0249B01330BF1010B0DF16F01012216
:104F3000072BCDF894B0249384E8060000F3DA83BD
:104F400008340F9B73B1249B01330BF1020B1CA996
:104F50000222072BCDF894B0249384E8060000F3D6
:104F6000D5830834B9F1800F00F01183119B0D9A9D
:104F7000C2EB030ABAF1000F3CDDBAF1100F249A1C
:104F8000DFF868942BDD49465B46A9464FF01008D0
:104F9000DDF820B00D4606E0AAF1100ABAF1100FB4
:104FA00004F1080417DD01321033072A25932492F7
:104FB00084E82001F0DD5846314623AA04F0EEFDD6
:104FC00000287FF4F5AEAAF1100ABAF1100F259B64
:104FD000249A3C46E7DC9B462B464D4699460132D7
:104FE000D344072ACDF894B0249284E8000600F355
:104FF00075830834079BD90500F16C82249B0D99B9
:10500000109A226001338B44072BCDF894B0616075
:10501000249300F346830834079B5A0741D50C9B21
:10502000099A9D1A002D3CDD102D249BDFF8B8A3B2
:1050300023DD4FF010085A46DDF8209004E0103DC3
:10504000102D04F1080417DD01331032072B2592CF
:105050002493C4F800A0C4F80480F0DD484631462B
:1050600023AA04F09BFD00287FF4A2AE103D102D72
:10507000259A249B3C46E7DC93460133AB44072B3F
:10508000CDF894B02493C4F800A0656009DD0898B9
:10509000314623AA04F082FD00287FF489AEDDF8B2
:1050A00094B00B9B099A0C998A42ACBF9B185B1871
:1050B0000B93BBF1000F7FF473AE002324933C46A7
:1050C000D5E5194607981D7840F004000790FCE5E7
:1050D0000A93079B13F0200300F00E810E9B03F14F
:1050E000070929F0070303F10802D3E900890E92AA
:1050F00000237CE61D7819462B22E6E51D782A2D33
:1051000003F1010100F0AD87A5F1300009280B463D
:105110004FF0000A3FF6DAAD13F8015B0AEB8A0A9A
:1051200000EB4A0AA5F130000928F5D94AEAEA7AE3
:10513000CCE50A93079B8DF86F209B0640F1A18078
:105140000E9B03F1070929F00709D9E9002309F1AA
:1051500008010E9190469946002A73F10003C0F2AF
:105160000B849DF86FC0CDF844A0012345E60A9357
:105170009B4B1693079B8DF86F209B0640F1F380A5
:105180000E9B03F1070929F00703D3E9008903F116
:1051900008020E92079BD90740F1F58058EA0903EF
:1051A00000F0F180079A8DF87150302342F002022E
:1051B0008DF870300792022319E61D781946002AEF
:1051C0007FF483AD202280E5079941F0200107910B
:1051D0001D78194679E50A93079B8DF86F209A068A
:1051E00040F1A1840B990E9A4FEAE17913680846C1
:1051F0008846043249460E92C3E9000137E50E9A0B
:105200000A93136810934FF0000B8DF86FB002F102
:105210000409002B00F03B86BAF1000F1098C0F291
:10522000E9855946524603F0D5FD002800F06C860A
:10523000109BCDF844B0C31A0D93CDF8389023EAF3
:10524000E3730993CDF848B09DF86FC00AE6A5F165
:105250003000002113F8015B01EB810100EB4101FB
:10526000A5F130000928F5D90C912FE50A93079B89
:105270008DF86F2043F010030793079B9B063FF5C3
:105280005FAF079BD80600F16883079B590640F182
:1052900064830E99B1F9008004314FEAE8794246FF
:1052A0004B460E9158E71D7807996C2D00F0CB8482
:1052B00041F010010791194607E50E9D29680C91F0
:1052C00008460028294601F10401C0F2B5840E9178
:1052D0001D781946F9E4079941F0400107911D78BE
:1052E0001946F2E40A93079B43F010030793079BC8
:1052F00013F020037FF4F2AE079A12F0100240F090
:105300001983079B13F0400300F014830E99134692
:105310000A460432B1F800800E924FF0000966E5AB
:105320000A93079B43F010030793079B98063FF5EA
:1053300053AD079BD90600F10683079B5A0640F13F
:1053400002830E9AB2F8008004324FF00009012364
:105350000E924CE50A93234B1693079B8DF86F2012
:105360009B063FF50DAF079BD80640F1CD830E9A03
:1053700013461B689846079B0432D9070E924FF0DC
:1053800000093FF50BAF022331E50E990A930A6835
:105390008DF898200023012204319C4609920E9139
:1053A0008DF86F3026ABCDF844C0CDF848C00D92D3
:1053B00010935DE5079941F0080107911D781946A2
:1053C00083E4079941F0010107911D7819467CE4B7
:1053D000079941F0800107911D78194675E400BFD7
:1053E00074AF400060AF400040AF400030AF4000BD
:1053F0000A930E9B8DF86F2003F1070929F007032C
:1054000003F108020E921A6814925B6815931599BD
:10541000149804F015FB0128D3461498159940F010
:1054200059830022002304F05FFE002840F06485C9
:105430009DF86FC0079BBE4ADFF800E323F08003AE
:105440000793134603210020472DD8BF73460991C7
:10545000119010930D91129004E50E9807990A93FC
:10546000302203688DF870200246782541F0020151
:1054700004329846AF4B169307910E924FF00009F5
:105480008DF871500223B2E40A938DF86F20002D3D
:1054900000F0C683002301229C4609928DF89850A3
:1054A0007EE7DDF894B039E5012B7FF4B8ACB9F1B3
:1054B000000F08BFB8F10A0F80F01C820DF5807B49
:1054C00008F130080BF8418DCBEB07030D93CDF8B5
:1054D00040B0BFE4652D40F3A080149815990022D8
:1054E000002304F0F7FD002800F04581249B924A38
:1054F000226001330BF1010B0122072BCDF894B090
:105500002493626000F3348308341D9B139A934202
:1055100003DB079BDA077FF57FAD249B1899179A69
:10552000226001338B44072BCDF894B06160249343
:1055300000F390830834139B5D1E002D7FF76CAD44
:10554000102D249BDFF8F89140F3BA814FF010083A
:105550005A46DDF820A004E00834103D102D40F339
:10556000AE8101331032072B25922493C4F80090AA
:10557000C4F80480F0DD5046314623AA04F00EFB47
:1055800000287FF415AC259A249B3C46E5E70C9B4C
:10559000099AC2EB030ABAF1000F7FF7E7ACBAF140
:1055A000100F249ADFF898912BDD49465B46A946F7
:1055B0004FF01008DDF820B00D4606E0AAF1100A01
:1055C000BAF1100F04F1080417DD01321033072A75
:1055D0002593249284E82001F0DD5846314623AA21
:1055E00004F0DCFA00287FF4E3ABAAF1100ABAF168
:1055F000100F259B249A3C46E7DC9B462B464D46E4
:1056000099460132D344072ACDF894B0249284E815
:10561000000600F352820834A8E4139B249D012B5A
:1056200040F32082109B236001350BF1010301221E
:10563000072D25932495626000F32682083418997B
:105640006160013503EB010B072D179BCDF894B07A
:105650002495236000F324820834002314981599BC
:10566000002204F037FD139B002840F0DE80109AE2
:10567000013B013501329B44072D2495CDF894B0B0
:105680002260636000F30E810834199A626001356C
:1056900093441FAB072DCDF894B0249523607FF77A
:1056A000BAAC0898314623AA04F078FA00287FF4AF
:1056B0007FABDDF894B03C46AEE4002B32D1079BC3
:1056C000D8072FD50DF5807B30230BF8413DCBEB70
:1056D00007030D93CDF840B0FFF7BCBB08983146E7
:1056E00023AA04F05BFA00287FF462ABDDF894B0E3
:1056F0003C467FE40898314623AA04F04FFA00287C
:105700007FF456ABDDF894B03C461AE40898314675
:1057100023AA04F043FA00287FF44AABDDF894B0E2
:105720003C461FE4CDF834A01097FFF793BB00BFB1
:1057300054AF400074AF400090AF400050AF400005
:1057400030AF40001698BB464FEA181308F00F011F
:1057500043EA09734FEA191298469146435C0BF8E5
:10576000013D58EA0903EFD15B46CDF840B0FB1A82
:105770000D93FFF76FBB1D9D002D40F30582139A1B
:1057800012998A421346A8BF0B461D461099002D58
:1057900001EB020A0BDD249B21600133AB44072B94
:1057A000CDF894B06560249300F34D830834129BC8
:1057B000002DA8BF5B1B002B1D4640F3F580102D6C
:1057C000249BDFF8F49540F3C6815A464FF0100849
:1057D000DDF820B004E00834103D102D40F3BA810C
:1057E00001331032072B25922493C4F80090C4F89B
:1057F0000480F0DD5846314623AA04F0CFF9002892
:105800007FF4D6AA259A249B3C46E5E708983146C2
:1058100023AA04F0C3F900287FF4CAAA9DF86FC038
:10582000DDF894B03C46FFF779BB03F1FF38B8F1DF
:10583000000F7FF72AAFB8F1100FDFF87C9525DD58
:105840005B464FF0100ADDF820B006E0A8F1100822
:10585000B8F1100F04F1080417DD01351033072DDE
:105860002593249584E80006F0DD5846314623AAA6
:1058700004F094F900287FF49BAAA8F11008B8F16D
:10588000100F259B249D3C46E7DC9B460135C34415
:10589000072DCDF894B02495C4F80090C4F8048086
:1058A0007FF7F2AE0898314623AA04F077F9002872
:1058B0007FF47EAADDF894B0249D3C46E5E693464D
:1058C0000133AB44072BCDF894B02493C4F8009077
:1058D00065607FF7A0ABE4E6302B109B3FF447AF49
:1058E000013B1A461093BA1A30230D9201F8013C7D
:1058F000FFF7B0BABB46CDF824C0404649460A225D
:10590000002304F019FC3032404649460BF8012DC3
:1059100000230A2204F010FC8046894658EA090355
:10592000EBD15B46FB1ADDF824C0CDF840B00D93F7
:10593000FFF790BA0E990A6804310E9190464FF025
:105940000009FFF754BA0E990A68043101230E9139
:1059500090464FF00009FFF74ABA0E9A136898462E
:105960004FEAE3791346043342460E93002A4B462E
:1059700073F10003BFF6F5AB4FF02D0CD8F1000822
:1059800069EB49098DF86FC0CDF844A00123FFF7FA
:1059900034BA0898314623AA04F000F900287FF4AD
:1059A00007AADDF894B03C46109A12991D9B0A4450
:1059B0009046139A934246DB079AD00743D4139A32
:1059C000C8EB0A05D31A9D42A8BF1D46002D0CDD69
:1059D000249AC4F800800132AB44072ACDF894B071
:1059E0006560249200F367820834002DACBF5D1B14
:1059F0001D46002D7FF710AB102D249BDFF8B893C8
:105A00007FF75EAF4FF010085A46DDF820A004E0A3
:105A10000834103D102D7FF752AF01331032072BA1
:105A200025922493C4F80090C4F80480F0DD504619
:105A3000314623AA04F0B2F800287FF4B9A9259AC8
:105A4000249B3C46E5E7249A189817992160013277
:105A50008344072ACDF894B06060249200F30A8250
:105A60000834ACE7079BD9073FF5DCAD109B2360FA
:105A700001350BF1010B0123072DCDF894B02495CE
:105A800063607FF701AE0DE70898314623AA04F062
:105A900085F800287FF48CA9259B249D3C46CEE503
:105AA0000898314623AA04F079F800287FF480A9E9
:105AB000DDF894B0249D3C46CFE50898314623AAF2
:105AC00004F06CF800287FF473A9DDF894B03C462C
:105AD000FFF74CBA03F0B4FF002840F0C7808646B9
